:03000000020026D5
:0C002600787FE4F6D8FD75811902006DAA
:0F01F70049206765742000F1F3F2F6F4FCF8F983
:1001E300010801010902011500030FF7FBF30312D4
:0301F300EFDFCF6C
:10000300758920758DFD758BFDD28ED29CC29FD2D2
:090013009ED2AFD2ACE4F58022CC
:10017400740FAD902CF8E6F590ED52907F017E005F
:100184008E0B8F0CD3E50C9400E50B940040107596
:100194000D6ED50DFDE50C150C70E9150B80E522EF
:1000B200E4F518C294E4FC1201740CBC03F9C29575
:1000C200D291D2937F647E00120184758080C294A3
:1000D200D290D292D295E4FC74121201760CBC0337
:1000E200F77F647E001201847580C0D294E4FC1212
:1000F20001740CBC03F9D295D291D2937F647E0035
:100102001201847580E0D294D290D292C295E4FC1E
:10011200AD9074121201780CBC03F57F647E00125C
:0E01220001847580F00518E518C39406408529
:0101300022AC
:1001CC00E4FDED9001FE93541FF5907F147E001218
:0601DC0001840DBD08ECDA
:0101E20022FA
:10013100120003E50AB401FBC2ACE51524FE601010
:1001410004701BC2A37FD07E07120184D2A3800E4C
:10015100E4F580FC1201CC0CBC01F9E4F5908516A4
:1001610099E4F50A3099FDC299758001D2ACE4F5A4
:030171001680C035
:030023000201A433
:1001A400C0E0C0D0C298859916750A01E516B4411D
:1001B40005751501800DE516B44205751502800319
:0801C400751500D0D0D0E03227
:10003200020131E493A3F8E493A34003F68001F2B2
:1000420008DFF48029E493A3F85407240CC8C333CF
:10005200C4540F4420C8834004F456800146F6DF9E
:10006200E4800B01020408102040809001E3E47E4A
:10007200019360BCA3FF543F30E509541FFEE49393
:10008200A360010ECF54C025E060A840B8E493A35A
:10009200FAE493A3F8E493A3C8C582C8CAC583CA85
:1000A200F0A3C8C582C8CAC583CADFE9DEE780BE3D
:0101F6000008
:00000001FF
